{
  "_format": "hh-sol-artifact-1",
  "contractName": "BatchContract",
  "sourceName": "contracts/BatchContract.sol",
  "abi": [
    {
      "stateMutability": "nonpayable",
      "type": "fallback"
    },
    {
      "inputs": [
        {
          "internalType": "bytes[]",
          "name": "data",
          "type": "bytes[]"
        },
        {
          "internalType": "address[]",
          "name": "to",
          "type": "address[]"
        },
        {
          "internalType": "uint256[]",
          "name": "value",
          "type": "uint256[]"
        }
      ],
      "name": "sendBatchTransactions",
      "outputs": [],
      "stateMutability": "payable",
      "type": "function"
    }
  ],
  "bytecode": "0x6080604052348015600f57600080fd5b506105918061001f6000396000f3fe6080604052600436106100225760003560e01c806374e68e571461003157610023565b5b34801561002f57600080fd5b005b61004b600480360381019061004691906102a6565b61004d565b005b60005b868690508110156101825760008585838181106100705761006f61035a565b5b905060200201602081019061008591906103e7565b905060008173ffffffffffffffffffffffffffffffffffffffff168585858181106100b3576100b261035a565b5b905060200201358a8a868181106100cd576100cc61035a565b5b90506020028101906100df9190610423565b6040516100ed9291906104c5565b60006040518083038185875af1925050503d806000811461012a576040519150601f19603f3d011682016040523d82523d6000602084013e61012f565b606091505b5050905080610173576040517f08c379a000000000000000000000000000000000000000000000000000000000815260040161016a9061053b565b60405180910390fd5b50508080600101915050610050565b50505050505050565b600080fd5b600080fd5b600080fd5b600080fd5b600080fd5b60008083601f8401126101ba576101b9610195565b5b8235905067ffffffffffffffff8111156101d7576101d661019a565b5b6020830191508360208202830111156101f3576101f261019f565b5b9250929050565b60008083601f8401126102105761020f610195565b5b8235905067ffffffffffffffff81111561022d5761022c61019a565b5b6020830191508360208202830111156102495761024861019f565b5b9250929050565b60008083601f84011261026657610265610195565b5b8235905067ffffffffffffffff8111156102835761028261019a565b5b60208301915083602082028301111561029f5761029e61019f565b5b9250929050565b600080600080600080606087890312156102c3576102c261018b565b5b600087013567ffffffffffffffff8111156102e1576102e0610190565b5b6102ed89828a016101a4565b9650965050602087013567ffffffffffffffff8111156103105761030f610190565b5b61031c89828a016101fa565b9450945050604087013567ffffffffffffffff81111561033f5761033e610190565b5b61034b89828a01610250565b92509250509295509295509295565b7f4e487b7100000000000000000000000000000000000000000000000000000000600052603260045260246000fd5b600073ffffffffffffffffffffffffffffffffffffffff82169050919050565b60006103b482610389565b9050919050565b6103c4816103a9565b81146103cf57600080fd5b50565b6000813590506103e1816103bb565b92915050565b6000602082840312156103fd576103fc61018b565b5b600061040b848285016103d2565b91505092915050565b600080fd5b600080fd5b600080fd5b600080833560016020038436030381126104405761043f610414565b5b80840192508235915067ffffffffffffffff82111561046257610461610419565b5b60208301925060018202360383131561047e5761047d61041e565b5b509250929050565b600081905092915050565b82818337600083830152505050565b60006104ac8385610486565b93506104b9838584610491565b82840190509392505050565b60006104d28284866104a0565b91508190509392505050565b600082825260208201905092915050565b7f5472616e73616374696f6e206661696c65640000000000000000000000000000600082015250565b60006105256012836104de565b9150610530826104ef565b602082019050919050565b6000602082019050818103600083015261055481610518565b905091905056fea264697066735822122049be1b7e5cb821bc0622e36ebf6d9b60f15bad022e61beae56db408a95ab18f564736f6c634300081a0033",
  "linkReferences": {},
  "deployedLinkReferences": {}
}