{
  "_format": "hh-sol-artifact-1",
  "contractName": "BatchTransferContract",
  "sourceName": "contracts/BatchTransferContract.sol",
  "abi": [
    {
      "inputs": [],
      "name": "ReentrancyGuardReentrantCall",
      "type": "error"
    },
    {
      "anonymous": false,
      "inputs": [
        {
          "indexed": false,
          "internalType": "address",
          "name": "fromAddress",
          "type": "address"
        },
        {
          "indexed": true,
          "internalType": "address[]",
          "name": "toAddress",
          "type": "address[]"
        },
        {
          "indexed": false,
          "internalType": "uint256[]",
          "name": "recipientAmount",
          "type": "uint256[]"
        }
      ],
      "name": "BatchTransfer",
      "type": "event"
    },
    {
      "anonymous": false,
      "inputs": [
        {
          "indexed": true,
          "internalType": "address",
          "name": "fromAddress",
          "type": "address"
        },
        {
          "indexed": true,
          "internalType": "address[]",
          "name": "tokenAddress",
          "type": "address[]"
        },
        {
          "indexed": false,
          "internalType": "address[]",
          "name": "tokenRecipientAddress",
          "type": "address[]"
        },
        {
          "indexed": false,
          "internalType": "uint256[]",
          "name": "tokenAmount",
          "type": "uint256[]"
        },
        {
          "indexed": true,
          "internalType": "address[]",
          "name": "recipients",
          "type": "address[]"
        },
        {
          "indexed": false,
          "internalType": "uint256[]",
          "name": "amount",
          "type": "uint256[]"
        }
      ],
      "name": "BatchTransferCombinedMultiTokens",
      "type": "event"
    },
    {
      "anonymous": false,
      "inputs": [
        {
          "indexed": true,
          "internalType": "address",
          "name": "fromAddress",
          "type": "address"
        },
        {
          "indexed": true,
          "internalType": "address[]",
          "name": "tokenAddress",
          "type": "address[]"
        },
        {
          "indexed": true,
          "internalType": "address[]",
          "name": "toAddress",
          "type": "address[]"
        },
        {
          "indexed": false,
          "internalType": "uint256[]",
          "name": "recipientAmount",
          "type": "uint256[]"
        }
      ],
      "name": "BatchTransferMultiToken",
      "type": "event"
    },
    {
      "anonymous": false,
      "inputs": [
        {
          "indexed": true,
          "internalType": "address",
          "name": "fromAddress",
          "type": "address"
        },
        {
          "indexed": true,
          "internalType": "address",
          "name": "tokenAddress",
          "type": "address"
        },
        {
          "indexed": true,
          "internalType": "address[]",
          "name": "toAddress",
          "type": "address[]"
        },
        {
          "indexed": false,
          "internalType": "uint256[]",
          "name": "recipientAmount",
          "type": "uint256[]"
        }
      ],
      "name": "BatchTransferToken",
      "type": "event"
    },
    {
      "anonymous": false,
      "inputs": [
        {
          "indexed": true,
          "internalType": "address",
          "name": "fromAddress",
          "type": "address"
        },
        {
          "indexed": true,
          "internalType": "address",
          "name": "tokenAddress",
          "type": "address"
        },
        {
          "indexed": true,
          "internalType": "address[]",
          "name": "toAddress",
          "type": "address[]"
        },
        {
          "indexed": false,
          "internalType": "uint256[]",
          "name": "recipientAmount",
          "type": "uint256[]"
        }
      ],
      "name": "SimpleBatchTransferToken",
      "type": "event"
    },
    {
      "stateMutability": "nonpayable",
      "type": "fallback"
    },
    {
      "inputs": [
        {
          "internalType": "address[]",
          "name": "recipients",
          "type": "address[]"
        },
        {
          "internalType": "uint256[]",
          "name": "amounts",
          "type": "uint256[]"
        }
      ],
      "name": "batchTransfer",
      "outputs": [],
      "stateMutability": "payable",
      "type": "function"
    },
    {
      "inputs": [
        {
          "internalType": "address[]",
          "name": "tokenAddress",
          "type": "address[]"
        },
        {
          "internalType": "address[]",
          "name": "recipients",
          "type": "address[]"
        },
        {
          "internalType": "uint256[]",
          "name": "amounts",
          "type": "uint256[]"
        },
        {
          "internalType": "address",
          "name": "spender",
          "type": "address"
        }
      ],
      "name": "batchTransferMultiTokens",
      "outputs": [],
      "stateMutability": "nonpayable",
      "type": "function"
    },
    {
      "inputs": [
        {
          "internalType": "address",
          "name": "tokenAddress",
          "type": "address"
        },
        {
          "internalType": "address[]",
          "name": "recipients",
          "type": "address[]"
        },
        {
          "internalType": "uint256[]",
          "name": "amounts",
          "type": "uint256[]"
        }
      ],
      "name": "simpleBatchTransferToken",
      "outputs": [],
      "stateMutability": "nonpayable",
      "type": "function"
    }
  ],
  "bytecode": "0x6080604052348015600f57600080fd5b506001600081905550611394806100276000396000f3fe6080604052600436106100385760003560e01c806388d695b214610047578063d4f729ce14610063578063fc0070061461008c57610039565b5b34801561004557600080fd5b005b610061600480360381019061005c91906109e1565b6100b5565b005b34801561006f57600080fd5b5061008a60048036038101906100859190610ac0565b61038d565b005b34801561009857600080fd5b506100b360048036038101906100ae9190610b89565b61064d565b005b6100bd6108cc565b6000828290508585905014610107576040517f08c379a00000000000000000000000000000000000000000000000000000000081526004016100fe90610ca1565b60405180910390fd5b60005b858590508110156101df57600073ffffffffffffffffffffffffffffffffffffffff168686838181106101405761013f610cc1565b5b90506020020160208101906101559190610cf0565b73ffffffffffffffffffffffffffffffffffffffff16036101ab576040517f08c379a00000000000000000000000000000000000000000000000000000000081526004016101a290610d69565b60405180910390fd5b8383828181106101be576101bd610cc1565b5b90506020020135826101d09190610dc2565b9150808060010191505061010a565b50803414610222576040517f08c379a000000000000000000000000000000000000000000000000000000000815260040161021990610e42565b60405180910390fd5b60005b8585905081101561032a57600086868381811061024557610244610cc1565b5b905060200201602081019061025a9190610cf0565b73ffffffffffffffffffffffffffffffffffffffff1685858481811061028357610282610cc1565b5b9050602002013560405161029690610e93565b60006040518083038185875af1925050503d80600081146102d3576040519150601f19603f3d011682016040523d82523d6000602084013e6102d8565b606091505b505090508061031c576040517f08c379a000000000000000000000000000000000000000000000000000000000815260040161031390610ef4565b60405180910390fd5b508080600101915050610225565b50848460405161033b929190610fd1565b60405180910390207fd76871a3b9b205c530f73884df11af482cc4ac28f71bdb2f15a98e79a3a7907633858560405161037693929190611074565b60405180910390a250610387610912565b50505050565b6103956108cc565b84849050878790501480156103af57508282905087879050145b6103ee576040517f08c379a00000000000000000000000000000000000000000000000000000000081526004016103e590611118565b60405180910390fd5b60005b878790508110156105bb57600088888381811061041157610410610cc1565b5b90506020020160208101906104269190610cf0565b905060008173ffffffffffffffffffffffffffffffffffffffff166323b872dd858a8a8781811061045a57610459610cc1565b5b905060200201602081019061046f9190610cf0565b89898881811061048257610481610cc1565b5b905060200201356040518463ffffffff1660e01b81526004016104a793929190611147565b6020604051808303816000875af11580156104c6573d6000803e3d6000fd5b505050506040513d601f19601f820116820180604052508101906104ea91906111b6565b90508061052c576040517f08c379a00000000000000000000000000000000000000000000000000000000081526004016105239061122f565b60405180910390fd5b8173ffffffffffffffffffffffffffffffffffffffff1663095ea7b33060006040518363ffffffff1660e01b8152600401610568929190611294565b6020604051808303816000875af1158015610587573d6000803e3d6000fd5b505050506040513d601f19601f820116820180604052508101906105ab91906111b6565b50505080806001019150506103f1565b5084846040516105cc929190610fd1565b604051809103902087876040516105e4929190610fd1565b60405180910390208273ffffffffffffffffffffffffffffffffffffffff167fcf1075ee8a4425118fb210d430c4f15db84e74c5db74db0fe12eda7d7e06fd0786866040516106349291906112bd565b60405180910390a4610644610912565b50505050505050565b6106556108cc565b81819050848490501461069d576040517f08c379a000000000000000000000000000000000000000000000000000000000815260040161069490611118565b60405180910390fd5b600085905060005b8585905081101561083c5760008273ffffffffffffffffffffffffffffffffffffffff16338888858181106106dd576106dc610cc1565b5b90506020020160208101906106f29190610cf0565b87878681811061070557610704610cc1565b5b9050602002013560405160240161071e93929190611147565b6040516020818303038152906040527f23b872dd000000000000000000000000000000000000000000000000000000007bffffffffffffffffffffffffffffffffffffffffffffffffffffffff19166020820180517bffffffffffffffffffffffffffffffffffffffffffffffffffffffff83818316178352505050506040516107a89190611347565b6000604051808303816000865af19150503d80600081146107e5576040519150601f19603f3d011682016040523d82523d6000602084013e6107ea565b606091505b505090508061082e576040517f08c379a00000000000000000000000000000000000000000000000000000000081526004016108259061122f565b60405180910390fd5b5080806001019150506106a5565b50848460405161084d929190610fd1565b60405180910390208673ffffffffffffffffffffffffffffffffffffffff163373ffffffffffffffffffffffffffffffffffffffff167f09ffb41e240936141b964189e28b8cbdab9552754c2a1ceb7164491dfd29a6be86866040516108b49291906112bd565b60405180910390a4506108c5610912565b5050505050565b600260005403610908576040517f3ee5aeb500000000000000000000000000000000000000000000000000000000815260040160405180910390fd5b6002600081905550565b6001600081905550565b600080fd5b600080fd5b600080fd5b600080fd5b600080fd5b60008083601f84011261094b5761094a610926565b5b8235905067ffffffffffffffff8111156109685761096761092b565b5b60208301915083602082028301111561098457610983610930565b5b9250929050565b60008083601f8401126109a1576109a0610926565b5b8235905067ffffffffffffffff8111156109be576109bd61092b565b5b6020830191508360208202830111156109da576109d9610930565b5b9250929050565b600080600080604085870312156109fb576109fa61091c565b5b600085013567ffffffffffffffff811115610a1957610a18610921565b5b610a2587828801610935565b9450945050602085013567ffffffffffffffff811115610a4857610a47610921565b5b610a548782880161098b565b925092505092959194509250565b600073ffffffffffffffffffffffffffffffffffffffff82169050919050565b6000610a8d82610a62565b9050919050565b610a9d81610a82565b8114610aa857600080fd5b50565b600081359050610aba81610a94565b92915050565b60008060008060008060006080888a031215610adf57610ade61091c565b5b600088013567ffffffffffffffff811115610afd57610afc610921565b5b610b098a828b01610935565b9750975050602088013567ffffffffffffffff811115610b2c57610b2b610921565b5b610b388a828b01610935565b9550955050604088013567ffffffffffffffff811115610b5b57610b5a610921565b5b610b678a828b0161098b565b93509350506060610b7a8a828b01610aab565b91505092959891949750929550565b600080600080600060608688031215610ba557610ba461091c565b5b6000610bb388828901610aab565b955050602086013567ffffffffffffffff811115610bd457610bd3610921565b5b610be088828901610935565b9450945050604086013567ffffffffffffffff811115610c0357610c02610921565b5b610c0f8882890161098b565b92509250509295509295909350565b600082825260208201905092915050565b7f54686520696e707574206172726179206d75737420686176652074686520736160008201527f6d65206c656e6774680000000000000000000000000000000000000000000000602082015250565b6000610c8b602983610c1e565b9150610c9682610c2f565b604082019050919050565b60006020820190508181036000830152610cba81610c7e565b9050919050565b7f4e487b7100000000000000000000000000000000000000000000000000000000600052603260045260246000fd5b600060208284031215610d0657610d0561091c565b5b6000610d1484828501610aab565b91505092915050565b7f526563697069656e742061646472657373206973207a65726f00000000000000600082015250565b6000610d53601983610c1e565b9150610d5e82610d1d565b602082019050919050565b60006020820190508181036000830152610d8281610d46565b9050919050565b6000819050919050565b7f4e487b7100000000000000000000000000000000000000000000000000000000600052601160045260246000fd5b6000610dcd82610d89565b9150610dd883610d89565b9250828201905080821115610df057610def610d93565b5b92915050565b7f496e73756666696369656e742062616c616e6365207061737365640000000000600082015250565b6000610e2c601b83610c1e565b9150610e3782610df6565b602082019050919050565b60006020820190508181036000830152610e5b81610e1f565b9050919050565b600081905092915050565b50565b6000610e7d600083610e62565b9150610e8882610e6d565b600082019050919050565b6000610e9e82610e70565b9150819050919050565b7f42617463685472616e73666572206661696c6564000000000000000000000000600082015250565b6000610ede601483610c1e565b9150610ee982610ea8565b602082019050919050565b60006020820190508181036000830152610f0d81610ed1565b9050919050565b600081905092915050565b6000819050919050565b610f3281610a82565b82525050565b6000610f448383610f29565b60208301905092915050565b6000610f5f6020840184610aab565b905092915050565b6000602082019050919050565b6000610f808385610f14565b9350610f8b82610f1f565b8060005b85811015610fc457610fa18284610f50565b610fab8882610f38565b9750610fb683610f67565b925050600181019050610f8f565b5085925050509392505050565b6000610fde828486610f74565b91508190509392505050565b610ff381610a82565b82525050565b600082825260208201905092915050565b600080fd5b82818337505050565b60006110248385610ff9565b93507f07ffffffffffffffffffffffffffffffffffffffffffffffffffffffffffffff8311156110575761105661100a565b5b60208302925061106883858461100f565b82840190509392505050565b60006040820190506110896000830186610fea565b818103602083015261109c818486611018565b9050949350505050565b7f54686520696e70757420617272617973206d757374206861766520746865207360008201527f616d65206c656e67746800000000000000000000000000000000000000000000602082015250565b6000611102602a83610c1e565b915061110d826110a6565b604082019050919050565b60006020820190508181036000830152611131816110f5565b9050919050565b61114181610d89565b82525050565b600060608201905061115c6000830186610fea565b6111696020830185610fea565b6111766040830184611138565b949350505050565b60008115159050919050565b6111938161117e565b811461119e57600080fd5b50565b6000815190506111b08161118a565b92915050565b6000602082840312156111cc576111cb61091c565b5b60006111da848285016111a1565b91505092915050565b7f42617463685472616e7366657220546f6b656e206661696c6564000000000000600082015250565b6000611219601a83610c1e565b9150611224826111e3565b602082019050919050565b600060208201905081810360008301526112488161120c565b9050919050565b6000819050919050565b6000819050919050565b600061127e6112796112748461124f565b611259565b610d89565b9050919050565b61128e81611263565b82525050565b60006040820190506112a96000830185610fea565b6112b66020830184611285565b9392505050565b600060208201905081810360008301526112d8818486611018565b90509392505050565b600081519050919050565b60005b8381101561130a5780820151818401526020810190506112ef565b60008484015250505050565b6000611321826112e1565b61132b8185610e62565b935061133b8185602086016112ec565b80840191505092915050565b60006113538284611316565b91508190509291505056fea264697066735822122025d3e4efd9ff22743f5f16ae0f183ae2a3d6e25773fbad8693a606242d7915fa64736f6c634300081a0033",
  "linkReferences": {},
  "deployedLinkReferences": {}
}